:020000040040BA
:10000000102D4020B5074000B3074000B307400063
:10001000B3074000B3074000B307400000000000F2
:100020000000000000000000000000008D0B4000F8
:10003000B3074000000000002D0C4000950C40006C
:10004000B3074000B3074000B3074000B3074000C8
:10005000B3074000B3074000B3074000B3074000B8
:10006000B307400000000000A5044000B9044000B0
:10007000CD044000B3074000B3074000B307400081
:10008000E1044000F5044000B3074000B30740001E
:10009000B3074000B3074000B3074000B307400078
:1000A000B3074000B3074000B3074000B307400068
:1000B000B3074000B3074000B3074000B307400058
:1000C000B3074000B3074000B3074000B307400048
:1000D00000000000B307400000000000B30740002C
:1000E000B3074000B3074000B3074000B307400028
:1000F000B3074000B3074000B3074000B307400018
:10010000B3074000B3074000B3074000B307400007
:10011000B3074000B30740000000000000000000EB
:10012000B3074000B3074000B3074000B3074000E7
:10013000B307400000000000B3074000B3074000D1
:1001400010B5054C237833B9044B13B10448AFF311
:1001500000800123237010BDB4094020000000007E
:100160001C9440000C4B43B10C480D4910B5AFF343
:1001700000800C48036823B910BD0A48036833B9EE
:100180007047094B002BF7D0BDE810401847064BCD
:10019000002BF5D0184700BF000000001C94400061
:1001A000B80940201C9440000000000010B5104821
:1001B000104B98473E2100200F4B98470F4CA0470B
:1001C0000028FCD00E4B98470E4A0F4B9A620F4CFA
:1001D000A0470028FCD002200D4B984700200D4B73
:1001E00098470D4B98470248024B984710BD00BFF7
:1001F00000A3E11189094000A5054000F905400070
:1002000009064000013F182000060E401906400074
:1002100009054000410540007D0840002DE9F041FE
:1002200080B90C469046002A0FDD8F18084E094D04
:10023000306821462B6898470134BC42F8D14046CB
:10024000BDE8F0814FF0FF38F9E78046F7E700BFDF
:10025000C40C4020BC0C40200138022815D82DE9E0
:10026000F0410E4614469AB10D46DFF838800C4F27
:10027000D8F8000015F8011B3B68984700280ADBF6
:10028000A81B013CF4D1BDE8F0814FF0FF3070476E
:100290001046BDE8F0814FF0FF30BDE8F08100BFAF
:1002A000C00C4020C40C4020F8B54FF400425E4B17
:1002B0005A60BFF34F8FBFF36F8F5C4B0022C3F8C0
:1002C00050225A6942F400325A61BFF34F8FBFF394
:1002D0006F8FD3F88070C7F34E3607F007000430F5
:1002E000C7F3C907B7FA87FE0EF01F0EBFF34F8F93
:1002F0004FF0FF3404FA00FC06FA00F004FA0EF4A2
:1003000007FA0EFE1D463A46734640EA0301C5F859
:100310006012013A2344B2F1FF3FF6D1013E60443E
:10032000B6F1FF3FEFD1BFF34F8F404B5A6942F414
:1003300080325A61BFF34F8FBFF36F8F3C4A3D4904
:100340005160A1F580715160BFF34F8FBFF36F8F84
:10035000D3F8902222F00102C3F89022D3F894221D
:1003600022F00102C3F89422BFF34F8FBFF36F8FC7
:100370000A20314CA0470B20A0470C20A04710209A
:10038000A0471120A0472D4B4FF400021A61C3F87B
:10039000A0201A632A494FF400720A61C1F8A02014
:1003A0000A635A61C3F8A0205A66C3F890205A65C0
:1003B0001A62C3F88420196F21F400711967596F0C
:1003C00021F400715967C3F8C020C3F8D420C3F8E2
:1003D000B0204FF400121A66C3F890205A655A6292
:1003E000C3F88020196F21F400111967596F21F4A7
:1003F000001159675A60134AD2F8143143F01003C0
:10040000C2F81431104B10221A66C3F890205A65B6
:100410005A62C3F88020196F11431967596F11434D
:1004200059675A60F8BD00BF50180E4000ED00E05B
:10043000000C0E400C08005A29064000000E0E4029
:1004400000120E400080084000100E40C06C704743
:10045000806C70472DE9F041044688460E4B984762
:10046000054620460D4B9847054013D00C4C04F12F
:10047000600603E0B4420DD010345DB12068404501
:10048000F8D161682942F5D0E3689847636825EAA6
:100490000305EFE7BDE8F0814D0440005104400042
:1004A000D009402008B50A210148024B984708BDF1
:1004B000000E0E405504400008B50B210148024BC8
:1004C000984708BD00100E405504400008B50C21A7
:1004D0000148024B984708BD00120E4055044000E9
:1004E00008B510210148024B984708BD00140E4082
:1004F0005504400008B511210148024B984708BD3A
:1005000000160E4055044000032811D0042812D0D4
:1005100002280CBF4FF480710021084A136B23F4AA
:1005200040730B431363936E13F0080FFBD07047B7
:100530004FF44071F1E74FF40071EEE700060E4012
:10054000174A136B23F0700318431063936E13F074
:10055000080F0AD14FF4006311498A6E12F0080F98
:1005600003D1013BF9D1012070470D4A136B23F0F1
:10057000030343F002031363936E13F0080F0AD1D1
:100580004FF4006306498A6E12F0080F05D1013B53
:10059000F9D101207047002070470020704700BF4C
:1005A00000060E40A0B90E48036A090289B20D4A3E
:1005B0001A400D4B1343194301620246936E13F028
:1005C000010FFBD0064A116A084B0B4313627047B8
:1005D00003490B6A064A1A40064B13430B627047E5
:1005E00000060E40FCFFC8FF010037000000370185
:1005F000FCFFC8FE02003701024B986E00F4803009
:10060000704700BF00060E404FF00052014B9A6247
:10061000704700BF00060E40024B986E00F00200CB
:10062000704700BF00060E403F281ED81F280CD878
:10063000114B9A6901238340934318D0012303FA95
:1006400000F00D4B18610020704720380A4BD3F89A
:1006500008210123834093430BD0012303FA00F0C8
:10066000054BC3F8000100207047012070470020AF
:1006700070470020704700BF00060E40436913F02A
:10068000020F02D0C161002070470120704743690A
:1006900013F0010F03D083690B7000207047012015
:1006A000704710B40B01934214D9C9004B0803EBF7
:1006B000C202B2FBF1F2D3085C1E4FF6FE718C420F
:1006C00001D9012017E0416841F4002141600CE0AC
:1006D000012010E0590801EBC202B2FBF3F2D3088B
:1006E0005C1E4FF6FE718C42F2D8120402F4E02236
:1006F0001A43026200205DF8044B7047084BC0F8B3
:10070000E430002343604362836288230360242330
:1007100003604FF4807303604FF40023036070475D
:100720000041535570B505460C4616460F4B984789
:1007300000220F4B1A60A4B13246216828460D4BA7
:100740009847024678B96368A1680B4321690B4357
:10075000E1680B4306490B6069680B436B60104608
:1007600070BD0122FBE70122F9E700BFFD06400052
:10077000400A4020A3064000402303607047102336
:1007800003607047436913F0020F04D0C1F30801FE
:10079000C1610020704701207047436913F0010FC9
:1007A00005D08369C3F308030B6000207047012064
:1007B0007047FEE700B583B0254B264A9A4210D019
:1007C000254B234A9A420CD2013B9B1A23F0030388
:1007D000043313441F4951F8040B42F8040B9A42A6
:1007E000F9D11E4B1E4A9A420AD2013B9B1A23F0B2
:1007F000030304331344002142F8041B9342FBD14A
:10080000184A194B23F07F039360EFF31083B3FA78
:1008100083F35B09019372B6BFF35F8F0022134B22
:100820001A700199124A136843F470031360BFF3FE
:100830004F8FBFF36F8F29B101220C4B1A70BFF39A
:100840005F8F62B60B4B98470B4B9847FEE700BF94
:10085000000040201C944000B40940200C0D4020B2
:10086000B409402000ED00E00000400000004020FE
:1008700088ED00E0BD2C40007D2B40003B4B1B6B06
:1008800003F00303012B1DD083B1022B36D0374B6D
:100890001B6B03F07003702B5FD0344B1A6B344921
:1008A000C2F302120B68D3400B607047314B5B6997
:1008B00013F0800F14BF4FF400424FF4FA422C4B58
:1008C0001A60E4E7294B1B6A13F0807F03D02A4AA1
:1008D000274B1A60DBE7294A254B1A60234B1B6A1A
:1008E00003F07003102B05D0202BD0D1224A204BCF
:1008F0001A60CCE7224A1E4B1A60C8E71B4B1B6AE2
:1009000013F0807F16D01C4A194B1A60174B1B6BD3
:1009100003F00303022BBAD1144A916A926A144875
:10092000C1F30A41036801FB0333D2B2B3FBF2F314
:100930000360ACE7114A0E4B1A600C4B1B6A03F0C4
:100940007003102B05D0202BE0D10B4A084B1A6006
:10095000DCE70B4A064B1A60D8E7054A13680949D9
:10096000A1FB03135B081360704700BF00060E4035
:100970000400402010180E40001BB70000093D0085
:1009800000127A00ABAAAAAA164B984213D9164BAA
:10099000984215D9154B984216D9154B984217D93C
:1009A000144B984218D9144B984294BF134A144AD6
:1009B000144B1A6070474FF08062124B1A607047F8
:1009C000114A104B1A607047104A0E4B1A6070475C
:1009D0000F4A0C4B1A6070474FF00422094B1A6003
:1009E000704700BFBFF35E017FE7BD023FDB1C0421
:1009F000FFCE7B05BFC2DA067FB6390800050004CA
:100A000000060004000C0E40000100040002000477
:100A1000000300040A4B1B6853B1094B1B681A18EA
:100A20000849914208DB1046054A10601846704795
:100A3000054A034B1A60F0E74FF0FF30704700BFE4
:100A4000440A4020FCFF4520102F40204FF0FF308B
:100A500070474FF400534B600020704701207047EF
:100A60000020704700F1080343604FF0FF328260BE
:100A7000C360036100230360704700230361704774
:100A800043684B609A688A609A685160996008610F
:100A9000036801330360704730B40D68B5F1FF3F60
:100AA00002D000F1080202E0026904E01A4653682D
:100AB0001C68A542FAD253684B6099608A60516005
:100AC000086103680133036030BC70470369426802
:100AD000816891608268416851605A68904205D08F
:100AE00000220261186801381860704782685A60F5
:100AF000F6E700000D4B1B68B3F1FF3F0AD04FF043
:100B0000800372B683F31188BFF36F8FBFF34F8FEB
:100B100062B6FEE74FF0800372B683F31188BFF32D
:100B20006F8FBFF34F8F62B6FEE700BF0800402013
:100B300006480068006880F3088862B661B6BFF3B3
:100B40004F8FBFF36F8F00DF00BF000008ED00E0A4
:100B5000DFF80C00016841F470010160704700008B
:100B600088ED00E04FF0807340F8043C40F8081C2A
:100B7000054B40F80C3C40F8202C6FF0020340F885
:100B8000243C4438704700BFF50A4000064B196802
:100B90000868B0E8F04F80F30988BFF36F8F4FF01B
:100BA000000080F311887047500A4020704700BF52
:100BB0004FF0800372B683F31188BFF36F8FBFF3DA
:100BC0004F8F62B60B4A136801331360012B0FD1AC
:100BD000094B1B6813F0FF0F0AD04FF0800372B669
:100BE00083F31188BFF36F8FBFF34F8F62B6FEE7B9
:100BF000704700BF0800402004ED00E00A4B1B686E
:100C000053B94FF0800372B683F31188BFF36F8F2F
:100C1000BFF34F8F62B6FEE7013B034A13600BB987
:100C200083F31188704700BF08004020EFF309806C
:100C3000BFF36F8F154B1A681EF0100F08BF20ED21
:100C4000108A20E9F04F10604DF8043D4FF080000D
:100C500072B680F31188BFF34F8FBFF36F8F62B608
:100C600001F044F94FF0000080F3118808BC1968C6
:100C70000868B0E8F04F1EF0100F08BFB0EC108A03
:100C800080F30988BFF36F8F704700BF500A402080
:100C9000704700BF08B5EFF311834FF0800272B6C2
:100CA00082F31188BFF36F8FBFF34F8F62B6054B8E
:100CB000984718B14FF08052034B1A60002383F31A
:100CC000118808BDAD1A400004ED00E0034A044B52
:100CD0001A600722043B1A60704700BFBF27090053
:100CE00014E000E000B583B0254B1A78D2B201922F
:100CF000FF221A701B78DBB28DF803309DF80330A9
:100D000003F080031F4A137007221F4B1A609DF8DF
:100D1000033013F0800F10D0062200E00A469DF841
:100D200003305B00DBB28DF803309DF80330511EB9
:100D300013F0800FF2D1144B1A60134A13681B0290
:100D400003F4E0631360019BDBB20D4A13700F4B99
:100D50001A6842F460021A601A6842F060421A602F
:100D60000B4B984700220B4B1A600B4B98470B4AD2
:100D7000136843F040431360094B9847094B984769
:100D800000E400E0480A40204C0A402020ED00E04A
:100D9000CD0C400008004020510B400034EF00E033
:100DA000310B4000F50A4000EFF305830F2B11D9FA
:100DB000124A9B5CDBB2124A12789A420AD94FF06F
:100DC000800372B683F31188BFF36F8FBFF34F8F29
:100DD00062B6FEE70B4B1B6803F4E0630A4A126835
:100DE00093420AD94FF0800372B683F31188BFF3A0
:100DF0006F8FBFF34F8F62B6FEE77047F0E300E0FE
:100E0000480A40200CED00E04C0A402010B5044692
:100E1000064B98472046064B98470446054B984793
:100E20000CB1204610BD044B9847FAE7851A4000E4
:100E3000352D4000F91B4000672B400048B110B52C
:100E40000446044B98472046034B9847034B98476A
:100E500010BD7047851A4000452D4000F91B400029
:100E600038B504461546026C5AB90368002B2ED1DA
:100E700040681B4B984700236360A36B0133A36357
:100E800038BD6DB98068174B9847A368226C13442E
:100E9000A360626893421CD32368A3600020ECE740
:100EA000C068104B9847236C5B42E2681A44E260CA
:100EB00021688A4202D262681344E360022D0AD19B
:100EC000A36B53B1A36B013BA3630020D5E70020C4
:100ED000D3E70020D1E70020CFE70020CDE700BF17
:100EE000ED224000B532400030B583B00190446D32
:100EF00074B1A26BE36B9A4215D34FF0800372B6C4
:100F000083F31188BFF36F8FBFF34F8F62B6FEE795
:100F10004FF0800372B683F31188BFF36F8FBFF376
:100F20004F8F62B6FEE7A26B934203D80025284696
:100F300003B030BD0A4601A920460B4B9847054631
:100F4000A36CB3F1FF3F0AD1636A002BEFD004F129
:100F50002400064B9847002818BF0125E7E7A36C3B
:100F60000133A364E3E700BF610E4000C1204000ED
:100F7000026C72B110B50346C4681444C460406882
:100F8000844201D31868D8600846D968014B984755
:100F900010BD7047B5324000F8B50446224B984763
:100FA000A36C002B1BDD214D214F224E0BE0636A09
:100FB000ABB104F12400B04778B9A36C013BA36442
:100FC000A36C002B0BDD636D002BF0D000212046BD
:100FD000A8470128F1D1B847EFE7B847EDE74FF050
:100FE000FF33A364144B98470F4B9847636C002B57
:100FF00014DD236993B104F110060E4D0C4F07E088
:10100000636C013B6364636C002B07DD23692BB1C8
:101010003046A8470028F3D0B847F1E74FF0FF3338
:101020006364054B9847F8BDB10B4000E90E4000E2
:101030001D224000C1204000FD0B400038B508B320
:1010400004460D461D4B98472268216CE36B03FB59
:1010500001F3D01860600020A063A2605B1A134403
:10106000E3604FF0FF336364A364FDB923692BB1E0
:1010700004F11000124B984701280ED0114B9847ED
:10108000012038BD4FF0800372B683F31188BFF39F
:101090006F8FBFF34F8F62B6FEE74FF080520A4B5F
:1010A0001A60BFF34F8FBFF36F8FE7E704F11000B3
:1010B000064DA84704F12400A847DFE7B10B400024
:1010C000C1204000FD0B400004ED00E0650A400037
:1010D000F8B550B94FF0800372B683F31188BFF3AF
:1010E0006F8FBFF34F8F62B6FEE7064617460D4679
:1010F00089B101FB00F05930124B98470446E8B91A
:101100004FF0800372B683F31188BFF36F8FBFF384
:101110004F8F62B6FEE758200A4B984704460028D6
:10112000EED02060E663256401212046064B9847F7
:1011300084F85070002363652046F8BD00F1580321
:101140000360EFE70D0E40003D1040002DE9F04F29
:1011500085B00192B8B1044601B3022B2CD01D46D4
:101160008846664B9847002834D1019B002B38D025
:101170004FF0800372B683F31188BFF36F8FBFF314
:101180004F8F62B6FEE74FF0800372B683F311888B
:10119000BFF36F8FBFF34F8F62B6FEE7026C002A7A
:1011A000DBD04FF0800372B683F31188BFF36F8FEB
:1011B000BFF34F8F62B6FEE7E26B012ACFD04FF04C
:1011C000800372B683F31188BFF36F8FBFF34F8F25
:1011D00062B6FEE700274A4EDFF850A1DFF82C91F7
:1011E00042E00027F7E72A4641462046454B98470C
:1011F000636D9BB129462046434B9847012807D190
:101200004FF08052414B1A60BFF34F8FBFF36F8F87
:101210003F4B9847012005B0BDE8F08F636A73B17A
:1012200004F124003B4B98470128F1D14FF0805244
:10123000364B1A60BFF34F8FBFF36F8FE8E700287C
:10124000E6D04FF08052314B1A60BFF34F8FBFF39F
:101250006F8FDDE72E4B98470020DCE720462E4BB2
:1012600098472E4B98470127B047A26BE36B9A42F1
:10127000B9D3022DB7D0019B002BEBD00FB902A838
:10128000D047234B9847264B9847B047636CB3F140
:10129000FF3F01D100236364A36CB3F1FF3F01D191
:1012A0000023A3641A4B984701A902A81D4B984735
:1012B000E0B9B047D4F838B0E76B154B9847BB4559
:1012C000CCD1019904F11000174B98472046124BDE
:1012D0009847124B98470028C5D14FF08053C9F862
:1012E0000030BFF34F8FBFF36F8FBCE720460A4B30
:1012F00098470A4B984700208DE700BF29224000FD
:10130000B10B4000610E4000E90E400004ED00E02A
:10131000FD0B4000C1204000990F4000F91B400028
:10132000851A400089214000BD1F4000592140001E
:10133000002836D02DE9F041044600293CD0022B8C
:1013400048D01E4615468846354B9847EFF311871F
:101350004FF0800372B683F31188BFF36F8FBFF332
:101360004F8F62B6A26BE36B9A4201D3022E4FD12C
:101370003246414620462B4B9847A36CB3F1FF3FC2
:1013800041D1636D002B33D031462046264B984720
:10139000002D3FD001283DD1286087F31188BDE89A
:1013A000F0814FF0800372B683F31188BFF36F8F23
:1013B000BFF34F8F62B6FEE7006C0028BFD04FF03E
:1013C000800372B683F31188BFF36F8FBFF34F8F23
:1013D00062B6FEE7E06B0128B3D04FF0800372B62F
:1013E00083F31188BFF36F8FBFF34F8F62B6FEE7B1
:1013F000636A8BB104F124000C4B984775B168B156
:1014000001202860C9E7A36C0133A3640120C4E76D
:101410000020C2E70120C0E70120BEE70120BCE7B1
:10142000A90D4000610E4000E90E4000C1204000BF
:101430002DE9F04784B0019298B10446E1B1984695
:101440000F46614B984728BB019B53B34FF0800375
:1014500072B683F31188BFF36F8FBFF34F8F62B6FD
:10146000FEE74FF0800372B683F31188BFF36F8FEE
:10147000BFF34F8F62B6FEE7026C002ADFD04FF059
:10148000800372B683F31188BFF36F8FBFF34F8F62
:1014900062B6FEE700264D4DDFF860A1DFF83C9113
:1014A0004BE00026F7E7E56839462046484B984769
:1014B000B8F1000F1DD1A36B013BA363236813B9DF
:1014C000444B9847606023696BB104F11000424BB4
:1014D0009847012807D14FF08052404B1A60BFF364
:1014E0004F8FBFF36F8F3E4B9847012004B0BDE88C
:1014F000F087E560636A002BF5D004F12400364BD9
:1015000098470028EFD04FF08052344B1A60BFF359
:101510004F8FBFF36F8FE6E7314B98470020E5E729
:10152000A84760682F4B98472D4B984730E02046DE
:101530002D4B98472D4B98470126A847A36B002BAE
:10154000B1D1019B002BE7D00EB902A8D047244BA4
:101550009847274B9847A847636CB3F1FF3F01D1E9
:1015600000236364A36CB3F1FF3F01D10023A364A4
:101570001B4B984701A902A81E4B9847E8B9A847FA
:10158000A66B174B9847002ED1D12368002BC7D0EC
:10159000019904F12400184B98472046124B9847B4
:1015A000124B98470028C7D14FF08053C9F800303C
:1015B000BFF34F8FBFF36F8FBEE720460A4B9847AC
:1015C0000A4B9847002091E729224000B10B4000C8
:1015D000710F4000B9244000C120400004ED00E03C
:1015E000FD0B400049224000990F4000F91B4000CC
:1015F000851A400089214000BD1F4000592140004C
:1016000010B40B4B1B6853B10123094C54F8332021
:1016100032B10133082BF9D15DF8044B7047002338
:10162000034A42F8331002EBC3035860F4E700BFEB
:10163000C80C402070B504460D4616460F4B98471F
:10164000636CB3F1FF3F0BD0A36CB3F1FF3F0AD043
:101650000B4B9847A36B4BB120460A4B984770BD84
:1016600000236364F0E70023A364F1E732462946D0
:1016700004F12400044B9847EEE700BFB10B400093
:10168000FD0B4000990F4000412040002DE9F04F34
:101690000F68002F50D04B685B684B6001F1080E5B
:1016A000734508D04B68D3F80CC0064600274FF0AE
:1016B0000208384620E0CB684B60F3E7CB684B600C
:1016C0001FE0D9F84830CAF81430CAF81800D9F821
:1016D00030B09BF80030A52B2CD10BF10103A3EB0C
:1016E0000B0513F8014BA52CF9D0AD08AAF81C5036
:1016F00001372036CC451FD04B685B684B609E4558
:10170000DCD04B68D3F80C90B246C6F8009009F1D3
:1017100034037360D9F84030B3603273D9F82C3099
:101720003361032ACDD1D9F82830002BC9D086F8EF
:101730000C80C6E70546D8E73846BDE8F08F0000C4
:10174000084B1B681B683BB1064B1B68DB68DB68FA
:101750005A68054B1A6070474FF0FF32024B1A600F
:10176000704700BF540A4020000B402010B50F4BBB
:101770001B6858600E4B1B6898420ED304460D4BF5
:1017800018680A4B196804310B4B98470B4B1B68C0
:101790009C4201D2094B1C6010BD094B1868034BD9
:1017A00019680431044B984710BD00BF500A40200F
:1017B000480B4020540A4020990A4000000B40206A
:1017C000580A40202DE9F04F83B00C9DDDF834A07D
:1017D0000E9E60B1042D15D94FF0800372B683F3CD
:1017E0001188BFF36F8FBFF34F8F62B6FEE74FF0E4
:1017F000800372B683F31188BFF36F8FBFF34F8FEF
:1018000062B6FEE70190984691460F4636B99000C1
:10181000624B98470646002800F09E8058205F4B98
:1018200098470446002800F0948006634FEA890236
:10183000A52130465A4B98476FF040464E44236BE3
:1018400003EB860323F007063B7884F834303B78BB
:10185000002B40F08480002784F83D70E562A56489
:10186000E76404F104094846DFF884B1D84704F17D
:101870001800D8472461C5F10503A3616462276598
:1018800084F85470424601993046464B9847206090
:10189000BAF1000F01D0CAF80040434B9847434AC1
:1018A000136801331360424B1B68002B66D1404B19
:1018B0001C601368012B21D13E4F38463E4EB04785
:1018C00007F11400B04707F12800B04707F13C00CA
:1018D000B04707F15000B047DFF818814046B047E5
:1018E000364F3846B0473648B0473648B047364896
:1018F000B047364BC3F80080354B1F60354A13683C
:10190000013313602364E06A334A11680123834082
:101910000B43136000EB80004946264B03EB80002D
:101920002E4B98472E4B98472E4B1B68002B31D0DF
:101930001F4B1B68DB6A9D422ED94FF080522A4B09
:101940001A60BFF34F8FBFF36F8F012003B0BDE864
:10195000F08F3046254B98474FF0FF30F6E73B4677
:1019600004F134020937597802F8011F13F8011FF6
:1019700000293FF470AFBB42F5D16CE7194B1B68EF
:10198000002BBBD10A4B1B68DB6A9D42B6D3084BC8
:101990001C60B3E70120D9E70120D7E70D0E400016
:1019A000E9334000650B4000B10B4000C00A402005
:1019B000500A40205C0A4020650A4000EC0A4020A2
:1019C000080B4020340B4020200B4020540A4020BC
:1019D000580A4020CC0A4020D40A4020810A400006
:1019E000FD0B40001C0B402004ED00E03D0E4000CC
:1019F0007B0A4000D80A402010B584B0002303932E
:101A0000029301930093822216491748174CA0476E
:101A100001280BD020BB4FF0800372B683F31188EE
:101A2000BFF36F8FBFF34F8F62B6FEE7104B98473F
:101A30000128EFD14FF0800372B683F31188BFF312
:101A40006F8FBFF34F8F62B64FF0FF32094B1A60B2
:101A50000122094B1A600022084B1A60084B984774
:101A600004B010BD34904000A91D4000C5174000CF
:101A7000A5254000000B40201C0B4020480B4020B7
:101A8000E50C4000024A136801331360704700BF41
:101A9000C80A4020014B1868704700BF480B40201F
:101AA000014B1868704700BFC00A40202DE9F0477D
:101AB000424B1B68002B78D1414B1A6801321A60E7
:101AC0001E68D6B93F4B1B681B6853B14FF08003AB
:101AD00072B683F31188BFF36F8FBFF34F8F62B677
:101AE000FEE7384A1168384B186810601960374AA9
:101AF000136801331360364B9847364B1B689E4280
:101B000018D20024344B1B68DB6A03EB8303334A8F
:101B100052F82330022B28BF0124314B1B680BB92C
:101B2000304B9847304B1B68002B0CBF20460120E0
:101B3000BDE8F0870024DFF88C90DFF8B8802B4FE9
:101B40001FE04FF0FF32234B1A60DBE7214A13609E
:101B5000D8E705F11800C047E86A3A6801238340D6
:101B600013433B6000EB800051461C4B03EB8000AD
:101B70001F4B9847184B1B68EA6ADB6A9A4228BFDA
:101B80000124D9F800301B68002BDAD0D9F80030D6
:101B9000DB68DD686B689E42D8D305F1040A5046C5
:101BA000C047AB6A002BD4D1D6E70D4A1368013386
:101BB00013600C4B98470024B4E700BFC80A4020CC
:101BC000480B4020540A4020580A4020040B402073
:101BD00041174000000B4020500A40205C0A402082
:101BE000C40A4020652B40004C0B4020D40A402002
:101BF000810A4000CD0A40002DE9F843384B1B68AC
:101C000053B94FF0800372B683F31188BFF36F8F1F
:101C1000BFF34F8F62B6FEE7324B9847304B1A68DE
:101C2000013A1A601B68002B55D12F4B1B68002B03
:101C300032D100242D4B98472046BDE8F883FB683D
:101C4000DC6804F11800B04704F104084046B047CE
:101C5000E06A2A680123834013432B6000EB800075
:101C6000414609EB8000224B9847224B1B68E26AF1
:101C7000DB6A9A420CD23B68002BE0D11E4B1B68FA
:101C8000DBB11D4B1B68C3B11C4E1D4D1A4C0EE041
:101C900001221B4B1A60EEE71A4F1B4E1B4DDFF85B
:101CA0007490E8E72368013B236023682BB1B047B9
:101CB0000028F7D001232B60F4E7114B1B68012BA0
:101CC0000BD14FF08052124B1A60BFF34F8FBFF30E
:101CD0006F8F0124AEE70024ACE70024AAE700BF21
:101CE000C80A4020B10B4000C00A4020FD0B400054
:101CF000810A4000500A4020C40A4020AD1A40002A
:101D00004C0B4020080B4020CD0A4000D40A402054
:101D100004ED00E05C0A402010B5002829D00446FC
:101D2000184B1B6853B14FF0800372B683F31188D0
:101D3000BFF36F8FBFF34F8F62B6FEE7124B98472A
:101D4000124B1B681C44124B18680430114B984707
:101D500048B90F4B1A6810490B68D06A01228240BB
:101D600023EA02030B6020460C4B98470C4B984724
:101D700038B94FF080520B4B1A60BFF34F8FBFF34F
:101D80006F8F10BDC80A4020851A4000480B4020C4
:101D9000500A4020CD0A4000D40A40206D17400070
:101DA000F91B400004ED00E080B5DFF88880194E93
:101DB000DFF884902AE0184B1B68012B1ED82B6893
:101DC000002BF8D0C0473468B847002CF7D0134B2D
:101DD0009847F368DC68201D114B9847114A136837
:101DE000013B13602B68013B2B600F4B9847206B26
:101DF000DFF848A0D0472046D047E0E74FF08053B7
:101E0000C9F80030BFF34F8FBFF36F8F074D084FF6
:101E1000D5E700BF340B40205C0A4020B10B4000E6
:101E2000CD0A4000C00A4020FD0B4000D00A4020EF
:101E3000F91B4000851A400004ED00E03D0E400013
:101E40002DE9F04706460C4617461F4B98471F4B97
:101E50001B68A34235D81E4B03F15005A3F11408AB
:101E600000244FF0010ADFF870905246294606EB35
:101E70004410C8470444143D4545F6D1154B196834
:101E8000022206EB4410144DA8470444134B196872
:101E9000022206EB4410A84704440422104906EB32
:101EA0004410A847044403220E4906EB4410A847F7
:101EB00004440FB100233B600B4B98472046BDE81C
:101EC000F0870024F8E700BF851A4000C00A4020D0
:101ED0005C0A4020540A40208D164000580A4020D9
:101EE000340B4020200B4020F91B40002D4B1B6879
:101EF000002B2CD110B500222B4B1A602B4B1B68EA
:101F00001B6B1A68B2F1A53F03D15A68B2F1A53F25
:101F100021D0264B186819683431254B9847254B3A
:101F20001B68B3FA83F3DBB2C3F11F0303EB830136
:101F3000214A52F82120BAB94FF0800372B683F3D8
:101F40001188BFF36F8FBFF34F8F62B6FEE7012298
:101F5000154B1A6070479A68B2F1A53FD9D1DB687A
:101F6000B3F1A53FD5D1DAE7134A9900C81802EBBF
:101F70008000446864684460194402460832944210
:101F800009D003EB83030C4A02EB83035B68DA6836
:101F9000064B1A6010BD6068074A02EB8102506070
:101FA000EFE700BFC80A40204C0B4020500A4020F9
:101FB0004D2B4000D40A40205C0A402038B5E0B1E7
:101FC0000C46174D29681831164B9847286804307D
:101FD000154B984740B92A6814490B68D06A01220A
:101FE000824023EA02030B60B4F1FF3F10D0104B94
:101FF000186820440F4B984738BD4FF0800372B6E5
:1020000083F31188BFF36F8FBFF34F8F62B6FEE784
:10201000034B196804310848084B984738BD00BF86
:10202000500A4020990A4000CD0A4000D40A4020BE
:10203000480B40206D174000200B4020810A4000D3
:10204000E8B170B515460C46164E31681831164B7E
:10205000984730680430154B984740B932681449A6
:102060000B68D06A0122824023EA02030B60012D33
:1020700010D0104B186820440F4B984770BD4FF09C
:10208000800372B683F31188BFF36F8FBFF34F8F56
:1020900062B6FEE7034B196804310848024B9847C3
:1020A00070BD00BF500A4020810A4000CD0A4000A8
:1020B000D40A4020480B40206D174000200B4020E0
:1020C00038B5C368DC6824B304F1180528461A4BF8
:1020D00098471A4B1B683BBB251D2846164B984753
:1020E000E06A174A1168012383400B43136000EB39
:1020F00080002946134B03EB8000134B9847134B8A
:102100001B68E26ADB6A9A4213D90120104B1860FF
:1021100038BD4FF0800372B683F31188BFF36F8F21
:10212000BFF34F8F62B6FEE729460A48064B984731
:10213000E5E7002038BD00BFCD0A4000C80A4020B6
:10214000D40A40205C0A4020810A4000500A402006
:102150004C0B4020080B402030B1094A1268026045
:10216000084A1268426070474FF0800372B683F3EA
:102170001188BFF36F8FBFF34F8F62B6FEE700BFCA
:10218000040B4020480B402038B5C0B1044609B3C9
:102190000D461D4B98471D4B1A682B68B3F1FF3F46
:1021A0002ED01B4909682068884202D061688A42A3
:1021B00028D26168501A834217D801241CE04FF0DE
:1021C000800372B683F31188BFF36F8FBFF34F8F15
:1021D00062B6FEE74FF0800372B683F31188BFF357
:1021E0006F8FBFF34F8F62B6FEE79B1A0B442B60D5
:1021F0002046084B98470024074B9847204638BD97
:102200000024F9E70124F7E7B10B4000480B402018
:10221000040B402059214000FD0B40000122014BDE
:102220001A6070474C0B4020054B1B6833B1054BBF
:102230001B68002B0CBF0220002070470120704754
:102240001C0B4020C80A4020002844D038B5044662
:10225000C26A21490968C96A8A4214D2816900297F
:1022600005DB1D490968C96AC1F10501816102EBFD
:1022700082021A4901EB82026169914204D0164A36
:102280001268D26AE26238BD251D2846144B984771
:1022900070B9E36A03EB8301104A52F821203AB97E
:1022A00010480268012101FA03F322EA03030360E4
:1022B000094B1B68D86AE0620A4A1168012383400F
:1022C0000B43136000EB80002946044B03EB8000B6
:1022D000054B984738BD7047500A40205C0A4020A3
:1022E000CD0A4000D40A4020810A400000284DD089
:1022F00038B50446274A126890420AD04FF080034E
:1023000072B683F31188BFF36F8FBFF34F8F62B63E
:10231000FEE7C26C52B94FF0800372B683F31188A6
:10232000BFF36F8FBFF34F8F62B6FEE7013AC2640F
:10233000C06AA16C88422BD052BB251D2846164B83
:10234000984768B9E16A01EB8102144B53F82230D7
:1023500033B91348036801228A4023EA0203036069
:10236000A06CE062C0F10503A3610D4A116801246D
:1023700004FA00F30B43136000EB80002946074B7F
:1023800003EB8000074B9847204638BD002070477C
:10239000002038BD500A4020CD0A40005C0A402091
:1023A000D40A4020810A40002DE9F04784B0044659
:1023B00000230370384B1A68039218684001374BAA
:1023C0009847002865D0054603990022344B98476A
:1023D000039000230293029A039B9A4256D24FF035
:1023E0000008DFF8D0902F4E3DE0422706E053274B
:1023F00004E0442702E0474600E05227029B05EB39
:10240000431359682046C8472046B047082808D8D3
:10241000204404F10902202300F8013B8242FBD151
:10242000092004EB000A04F80080029B029A02993A
:1024300005EB43131B6905EB41118968019105EB1D
:102440004212928B00923A4617495046174CA047C9
:102450005046B0470AEB0004029B01330293029AF4
:10246000039B9A4212D2029B05EB43131B7B013B59
:10247000032BC0D801A252F823F000BFFB23400079
:10248000EB234000EF234000F32340002846084B95
:10249000984704B0BDE8F087C00A40200D0E400008
:1024A000411E400041374000249040000D3640005E
:1024B0003D0E400059364000054B1B6823B1044BCC
:1024C0001A68D36C0133D364014B1868704700BF9E
:1024D000500A402008B54160006191420CD8D21AE0
:1024E00083699A4201D3012008BD011D094B186878
:1024F000094B9847002008BD9A4203D2994201D364
:10250000012008BD011D054B1868034B98470020AA
:1025100008BD00BF540B4020990A4000500B4020DA
:1025200070B5154B9847154B1B6813B1144B984762
:1025300070BD144D2846144EB047144C2046B04789
:10254000134B1D60134B1C60002210210520124B01
:1025500098470A4B186018B11049114B9847E5E7A6
:102560004FF0800372B683F31188BFF36F8FBFF310
:102570004F8F62B6FEE700BFB10B4000840B4020D6
:10258000FD0B4000580B4020650A40006C0B4020BA
:10259000500B4020540B4020D11040003C90400094
:1025A0000116400010B584B00F4B98470F4B1B68C5
:1025B00073B10023039302930193042200924FF41A
:1025C00082720B490B480C4CA04708B104B010BDF7
:1025D0004FF0800372B683F31188BFF36F8FBFF3A0
:1025E0004F8F62B6FEE700BF21254000840B4020DC
:1025F0004490400025274000C5174000D8B130B5B1
:1026000085B015460446154A106820B31A46009155
:1026100001950294052919DC114B984702284FF0C7
:1026200000030CBF089A1A4669460C4800680D4C16
:10263000A04705B030BD4FF0800372B683F3118818
:10264000BFF36F8FBFF34F8F62B6FEE7002369467B
:10265000054CA047EDE70020EBE700BF840B4020CE
:10266000292240004D114000311340002DE9F04770
:1026700082B08046244B98470746244B1B689842FB
:102680001BD30023C8F80030204B1F60384602B02F
:10269000BDE8F087002100910B46524620461C4CB5
:1026A000A04760B94FF0800372B683F31188BFF37F
:1026B0006F8FBFF34F8F62B6FEE7164D164E2B6835
:1026C0001A68C2B1DB68D3F800A0DC6804F1040921
:1026D0004846B047636A20469847E369012BEED12C
:1026E000A36953449A45D5D263602461494628685A
:1026F0000A4B9847E3E70A4A1068064908601360E6
:102700000123C8F80030BFE7951A4000800B402035
:10271000FD254000500B4020CD0A4000990A4000A2
:10272000540B40202DE9F04788B0754E754FDFF807
:10273000FC91DFF8FC8133681A68002A00F0CE8033
:10274000DB681C68B84704A86F4B98470546049B94
:10275000002B44D1A04212D20022611B6B4B18689F
:102760006B4B98476B4B984700283AD14FF08053FA
:10277000C9F80030BFF34F8FBFF36F8F31E0654B67
:1027800098473368DB68D3F80CA00AF10400C0470F
:10279000DAF81C30012B04D0DAF824305046984780
:1027A0001FE0DAF8181023462A46214450465A4DB5
:1027B000A8470128F0D1002100910B46224650463F
:1027C000564CA0470028E7D14FF0800372B683F340
:1027D0001188BFF36F8FBFF34F8F62B6FEE74D4B8B
:1027E00098474A4D4E4C06E007990698059B984736
:1027F000049B002B09DA00231A4604A92868A04785
:10280000002898D0049B002BEEDBDDF818A0DAF846
:10281000143013B10AF10400C04703A83A4B98479B
:10282000049B092BE7D801A252F823F05528400059
:102830005528400055284000F7274000A9284000AF
:10284000D52840005528400055284000F727400073
:10285000A9284000059CDAF81810234602462144B6
:1028600050462D4CA0470128BCD1DAF82430504600
:102870009847DAF81C30012BB4D1DAF8182000217F
:1028800000910B46059802445046244CA04700286E
:10289000A8D14FF0800372B683F31188BFF36F8F16
:1028A000BFF34F8F62B6FEE70599CAF8181031B131
:1028B0000346024601445046174CA04792E74FF0AA
:1028C000800372B683F31188BFF36F8FBFF34F8F0E
:1028D00062B6FEE75046134B984783E7B84704A813
:1028E000094B98470546049B002B7FF478AF0E4BAD
:1028F0001B681A68B2FA82F2520900242DE700BF61
:10290000500B4020851A40006D264000840B40206B
:1029100035164000F91B4000D5244000FD2540003D
:10292000311440003D0E4000540B402004ED00E007
:10293000CD0A400008B5074C4FF40006064D02E0F2
:1029400026636420A847E36B13F4000FF8D0666396
:10295000F7E700BF000E0E40191D400080B5094F7B
:10296000094E0A4DB84701463046A847084C204654
:10297000084B98472046A8474FF47A70064B984773
:10298000F0E700BFA11A4000149140000D2D400057
:10299000880B4020A9234000191D4000F0B583B0EA
:1029A00005460C46002301932A4B984213D02A4B2C
:1029B000984218D0294B98421DD0294B9D4222D0D5
:1029C000284B9D4227D0284B9D422ED0274B9D421D
:1029D00035D003B0F0BD1F46254E21463846B047DE
:1029E0000028FAD1E9E71F46214E21463846B04774
:1029F0000028FAD1E4E71F461D4E21463846B0476D
:102A00000028FAD1DFE71F46194E21463846B04765
:102A10000028FAD1DAE71E46164D01A93046A8472C
:102A20000028FAD1019B2370D3E71E46114D01A95E
:102A30003046A8470028FAD1019B2370C9E71E46FB
:102A40000C4D01A93046A8470028FAD1019B2370FC
:102A5000BFE700BF00080E40000A0E40001A0E40FB
:102A6000001C0E40004002400080024000C00240B6
:102A70008F0640009B07400070B50C462A4B9842D9
:102A800013D02A4B984219D0294B98421FD0294B7A
:102A9000984225D0284B98422BD0284B984231D0D1
:102AA000274B984237D0002070BD1E46254D214649
:102AB0003046A8470028FAD1012070BD1E46214D9E
:102AC00021463046A8470028FAD1012070BD1E4695
:102AD0001C4D21463046A8470028FAD1012070BD80
:102AE0001E46184D21463046A8470028FAD101203D
:102AF00070BD1E46144D21463046A8470028FAD125
:102B0000012070BD1E46104D21463046A8470028C2
:102B1000FAD1012070BD1E460B4D21463046A84714
:102B20000028FAD1012070BD00080E40000A0E40B6
:102B3000001A0E40001C0E4000400240008002407F
:102B400000C002407D0640008507400008B50A46E7
:102B500001460248024B9847FEE700BF3091400013
:102B60000D2D400070474FF0800372B683F311883B
:102B7000BFF36F8FBFF34F8F62B6FEE770B58AB0B9
:102B8000304B9847304B9847304D314B1D60314AA0
:102B9000314B1A60314A324B1A604FF4E1330493DF
:102BA000C02305934FF40063069300240794089410
:102BB0000E202C4B98472C4A04A928462B4B9847AB
:102BC00028462B4B984728462A4B98472A4E33686D
:102BD00021469868294DA847336821465868A84778
:102BE000336821469868A8472548264DA8472649B6
:102BF0002648A847264A27492748A847039402940D
:102C00000194009423464FF4007224492448254C33
:102C1000A047012801D02448A8470023039302932A
:102C2000019300934FF48072204921481D4CA04726
:102C3000012802D01F48134B98471F4B984700208C
:102C40000AB070BDAD014000A90240000080024002
:102C5000C40C4020792A4000C00C40209D2940002F
:102C6000BC0C40202906400080D1F0082507400018
:102C7000790740007F0740000C004020B13440003D
:102C8000509040000D2D4000749040008490400012
:102C90008C90400098904000A4904000BC90400070
:102CA0005D294000C5174000C8904000E8904000F2
:102CB00035294000F0904000F919400070B50F4EE2
:102CC0000F4D761BB61018BF002405D0013455F8FF
:102CD000043B9847A642F9D10A4E0B4D761B06F0ED
:102CE00087FBB61018BF002406D0013455F8043B0A
:102CF0009847A642F9D170BD70BD00BFFC9340005B
:102D0000FC93400004944000FC9340000FB400B5D5
:102D1000074983B004AB086853F8042B816801931A
:102D200001F0E2FF03B05DF804EB04B0704700BFB0
:102D30000C004020024B0146186800F00BB800BFA1
:102D40000C004020024B0146186804F041B800BF57
:102D50000C0040202DE9F04F01F10B06162E83B038
:102D6000054640F29E8036F0070600F1BD80B14274
:102D700000F2BA8000F086FBB6F5FC7FC0F09382CB
:102D8000730A00F0B880042B00F27981B30903F1D3
:102D9000390003F1380EC300BF4F3B44A3F10801D3
:102DA0005C68A14206D10CE0002A80F2AA80E468A7
:102DB000A14206D0636823F003039A1B0F2AF3DDB8
:102DC00070463C69DFF8E4E2744500F0AB8163686B
:102DD00023F003039A1B0F2A00F39081002AC7F8FF
:102DE00014E0C7F810E080F29D80B3F5007F80F01A
:102DF0006181DB0803F1010C99107A6857F83C8077
:102E0000C4F8088001238B4007EBCC011343083939
:102E1000E1607B6047F83C40C8F80C408210012418
:102E200094409C4200F28B801C4206D120F00300AB
:102E300064001C4200F10400FAD007EBC009CC4644
:102E40008046DCF80C309C4507D16DE1002A80F209
:102E50007B81DB689C4500F06781596821F00301A4
:102E60008A1B0F2AF2DDD3F80CC0D3F80880009338
:102E70009C19284646F0010642F001055E60C8F83C
:102E80000CC0CCF808807C613C61C4F80CE0C4F84C
:102E900008E065605A5000F0F7FA009B03F108045F
:102EA0001EE0102920D800F0EDFA10261823022089
:102EB000794F3B44A3F108025C68944200F03D81E5
:102EC0006368E168A66823F00303234428465A6830
:102ED000F16042F001028E605A6000F0D5FA0834C9
:102EE000204603B0BDE8F08F00240C2320462B6061
:102EF00003B0BDE8F08F40204FF400734FF03F0E59
:102F00004AE72344E1685A68A66842F00102F1608A
:102F100028468E605A6000F0B7FA0834204603B0A5
:102F2000BDE8F08F234428465A6842F001025A60F7
:102F300000F0AAFA0834204603B0BDE8F08FBC6860
:102F4000636823F00308B04504D3A8EB06030F2BF6
:102F500000F38580DFF85891504BD9F800201B68AA
:102F60000132334404EB080A00F0558103F5805325
:102F70000F3323F47F6B2BF00F0B5946284600F0DC
:102F800085FA411C024600F0FC80824500F2F78081
:102F9000434B19685944196000F04D81D9F800007D
:102FA00001301BBFA2EB0A0A5144C9F80020196086
:102FB00012F0070100F01581C1F10800C1F5805140
:102FC0000244083102EB0B09C9F30B09A1EB090913
:102FD000494628460193009200F058FA431C9DE8A8
:102FE0000C0000F04381801A484440F00100196849
:102FF000BA604944BC425060196017D0B8F10F0F55
:1030000040F2FB806068A8F10C0222F0070204EB9A
:10301000020E00F001004FF0050C10430F2A606013
:10302000CEF804C0CEF808C000F217811D4BBC6872
:103030001A68914288BF19601B4B1A6891426268F6
:1030400088BF196022F003029642A2EB060301D862
:103050000F2B04DC284600F017FA002440E7A219E1
:1030600043F0010346F0010666602846BA605360EB
:1030700000F00AFA0834204603B0BDE8F08F142BA4
:1030800071D9542B00F2A380330B03F16F0003F1CD
:103090006E0EC30080E600BF38044020B80C40200C
:1030A000880C4020B00C4020B40C4020400440204C
:1030B000400840205A0A042A5BD9142A00F2AE8044
:1030C00002F15C01C9005B3207EB010C7958ACF1ED
:1030D000080C8C4500F088804A6822F00302934275
:1030E00073D289688C45F7D1DCF80C207B68E260EC
:1030F000C4F808C09460CCF80C408FE6A11946F0E3
:10310000010C42F00106C4F804C028467961396117
:10311000C1F80CE0C1F808E04E60E25000F0B4F9EC
:103120000834DDE67B6879E608F1010818F0030F42
:103130000CF1080C7FF485AE2DE0DC68A34208BFDB
:1031400002303FF43EAEBBE619441C464A68DB68D9
:1031500054F8086F42F001024A602846F3609E600E
:1031600000F092F9BCE603F15C0003F15B0EC300D2
:1031700012E69A0902F13901C9003832A4E7BC42CB
:1031800054D0BC68626822F003025DE759F8083940
:10319000994540F0868010F0030F00F1FF30F5D123
:1031A0007B6823EA04037B6064009C423FF6C7AE61
:1031B000002C3FF4C4AE1C4240467FF43EAE640097
:1031C0001C4200F10400FAD037E68C468CE7B3F5D8
:1031D000AA7F15D8F30B03F1780003F1770EC30033
:1031E000DAE54FF48051EDE67B689210012101FA97
:1031F00002F213437B60624679E70123536029E7BB
:1032000040F25452934222D8B30C03F17D0003F1F3
:103210007C0EC300C0E503F1100BAEE6542A29D89A
:103220001A0B02F16F01C9006E324DE7204B19688D
:1032300059441960B2E6CAF30B0000287FF4AEAE21
:1032400008EB0B03BA6843F001035360EEE67F20FE
:103250004FF47E734FF07E0E9EE504F10801284680
:10326000009303F0B5FD009B1968DFE601204FF0E5
:103270000009BCE6B2F5AA7F05D8DA0B02F17801A5
:10328000C900773220E740F254518A4205D89A0C9F
:1032900002F17D01C9007C3216E74FF47E717E2277
:1032A00012E77B6880E7F00806F1080300E600BF3C
:1032B000880C4020844641EA000313F003036DD1DB
:1032C000403A41D351F8043B40F8043B51F8043BE9
:1032D00040F8043B51F8043B40F8043B51F8043BF0
:1032E00040F8043B51F8043B40F8043B51F8043BE0
:1032F00040F8043B51F8043B40F8043B51F8043BD0
:1033000040F8043B51F8043B40F8043B51F8043BBF
:1033100040F8043B51F8043B40F8043B51F8043BAF
:1033200040F8043B51F8043B40F8043B51F8043B9F
:1033300040F8043B51F8043B40F8043B51F8043B8F
:1033400040F8043B403ABDD2303211D351F8043B2F
:1033500040F8043B51F8043B40F8043B51F8043B6F
:1033600040F8043B51F8043B40F8043B103AEDD2DE
:103370000C3205D351F8043B40F8043B043AF9D22F
:10338000043208D0D2071CBF11F8013B00F8013B02
:1033900001D30B8803806046704700BF082A13D30F
:1033A0008B078DD010F003038AD0C3F10403D21A27
:1033B000DB071CBF11F8013B00F8013B80D331F85B
:1033C000023B20F8023B7BE7043AD9D3013A11F8DB
:1033D000013B00F8013BF9D20B7803704B78437046
:1033E0008B7883706046704770B4860746D0541E51
:1033F000002A41D0CAB2034602E014F1FF343BD3A5
:1034000003F8012B9D07F8D1032C2ED9CDB245EA44
:1034100005250F2C45EA054519D903F1100226466A
:10342000103E0F2E42F8105C42F80C5C42F8085C2B
:1034300042F8045C02F11002F2D8A4F1100222F06A
:103440000F0204F00F041032032C13440DD91E4652
:103450002246043A032A46F8045BFAD8221F22F0D7
:1034600003020432134404F003042CB1C9B21C4417
:1034700003F8011B9C42FBD170BC70471446034605
:10348000C2E700BF704700BF704700BF38B5074CA8
:103490000023054608462360FDF7BCFA431C00D014
:1034A00038BD2368002BFBD02B6038BD080D4020B1
:1034B00000290CBF022200224FF4806300F000B804
:1034C0002DE9F043504C256883B004460F469046E2
:1034D0001E4615B1AB6B002B77D0B8F1020F04D0AC
:1034E000B8F1010F7DD8002E7BDB2146284603F082
:1034F00005FB216B41B104F14003994202D02846FB
:1035000003F066FC00232363B4F90C300022A261AF
:1035100062601A0652D423F44A6323F00303B8F11D
:10352000020FA38137D001AB6A462146284603F03B
:10353000F3FEA3891843A08116B317B3AB6B002B1E
:103540004BD0009B27609E42B4F90C3027611CBF12
:1035500043F40063A381B8F1010F04BF43F00103FA
:10356000A3819BB213F00800666123D013F0010021
:103570002FD000207642A661A06003B0BDE8F083A2
:10358000009E3046FFF7D6FB074668B3A38943F099
:103590008003A381D2E7002004F1430243F0020339
:1035A00000250121A381A56022602261616103B031
:1035B000BDE8F083A06003B0BDE8F0832169284630
:1035C00003F006FCB4F90C30A5E7284603F02AFB0B
:1035D00083E7A66003B0BDE8F083284603F022FB32
:1035E000AFE74FF0FF30E2E7DDF80090B14506D0DD
:1035F0004846FFF79FFB074608B14E46C6E7B4F9B9
:103600000C304FF0FF30C7E70C0040200EB4F0B58F
:103610009CB021AB0F4953F8042B019305466FF082
:103620000044086802954FF402774FF6FF7602A92E
:103630000695ADF8147004940794ADF8166000F088
:10364000EDF8029B00221A701CB0BDE8F04003B0F8
:10365000704700BF0C00402080EA0102844612F04F
:10366000030F4FD111F0030F32D14DF8044D11F07B
:10367000040F51F8043B0BD0A3F101329A4312F02E
:10368000803F04BF4CF8043B51F8043B16D100BF07
:1036900051F8044BA3F101329A4312F0803FA4F198
:1036A00001320BD14CF8043BA24312F0803F04BF1F
:1036B00051F8043B4CF8044BEAD023460CF8013B8C
:1036C00013F0FF0F4FEA3323F8D15DF8044B704736
:1036D00011F0010F06D011F8012B0CF8012B002A74
:1036E00008BF704711F0020FBFD031F8022B12F063
:1036F000FF0F16BF2CF8022B8CF8002012F47F4F1E
:10370000B3D1704711F8012B0CF8012B002AF9D125
:10371000704700BF00000000000000000000000033
:103720000000000000000000000000000000000099
:103730000000000000000000000000000000000089
:1037400090F800F06DE9024520F007016FF0000CE1
:1037500010F0070491F820F040F049804FF0000489
:103760006FF00700D1E9002391F840F000F1080064
:1037700082FA4CF2A4FA8CF283FA4CF3A2FA8CF39C
:103780004BBBD1E9022382FA4CF200F10800A4FA03
:103790008CF283FA4CF3A2FA8CF3E3B9D1E9042357
:1037A00082FA4CF200F10800A4FA8CF283FA4CF38E
:1037B000A2FA8CF37BB9D1E9062301F1200182FA48
:1037C0004CF200F10800A4FA8CF283FA4CF3A2FA4E
:1037D0008CF3002BC6D0002A04BF04301A4612BA5C
:1037E000B2FA82F2FDE8024500EBD2007047D1E95F
:1037F000002304F00305C4F100004FEAC50514F0EE
:10380000040F91F840F00CFA05F562EA05021CBFBE
:1038100063EA050362464FF00004A9E72DE9F04F83
:10382000C3B00C460B9192460F930C9003F066FDCB
:1038300003681A931846FFF783FFA38919901906A6
:1038400003D52369002B01F0018000230DF1C80985
:103850001393149315932793269318931B9309930B
:10386000CDF89490C846169317939AF800305446B2
:10387000E3B1252B02D119E0252B03D014F8013F29
:10388000002BF9D1A4EB0A0585B1269B279AC8F82D
:1038900000A001332A44072BC8F80450279226932E
:1038A0007FDC08F10808099B2B4409932378002B3F
:1038B0007FD000231A468DF8773019460D939B462A
:1038C0004FF0FF3063780A9004F1010A0AF1010A0F
:1038D000A3F12000582800F2C083DFE810F038027E
:1038E000BE03BE034002BE03BE03BE03BE03BE034F
:1038F000BE0345020302BE035D006B02BE038602E7
:103900009C039C039C039C039C039C039C039C03BF
:103910009C03BE03BE03BE03BE03BE03BE03BE03C1
:10392000BE03BE03BE0337035703BE035703BE03E4
:10393000BE03BE03BE039703BE03BE03AC03BE03B8
:10394000BE03BE03BE03BE035902BE03BE031E0375
:10395000BE03BE03BE03BE03BE03BE03BE03BE035F
:10396000BE03BE03C602DB025703570357038B0295
:10397000DB02BE03BE039002BE039D02CC01B40273
:103980000802BE03E101BE037E00BE03BE030D02BA
:103990000D980F9340420D904BF0040B9AF80030B5
:1039A00094E725AA0B990C9804F0DAFA40B9C846B6
:1039B00079E7279B23B10C980B9925AA04F0D0FA3C
:1039C0000B9B9B8913F0400F099B18BF4FF0FF33EF
:1039D0000993099843B0BDE8F08F1BF0200F1193B5
:1039E00040F0DD810F9A1BF0100F134640F06C85FC
:1039F0001BF0400F00F06885148804320025012375
:103A00000F9200278DF877700A994A1C00F06582A2
:103A10002BF08002079254EA050240F064820029EC
:103A200040F03984002B40F0D4841BF001030E9346
:103A300000F0028642AE302306F8413D0A9B0E9A02
:103A40009342B8BF134608930023129317B1089B03
:103A500001330893079B13F00203109302D0089BD5
:103A600002330893079B13F0840540F00D830D9BF0
:103A7000089AA3EB020BBBF1000F40F30583BBF1E7
:103A8000100F279C269A29DD43462146A846102779
:103A90000C9C0B9D06E0ABF1100BBBF1100F03F17A
:103AA000080318DD0132B74826921031072A279102
:103AB00083E88100EFDD25AA2946204604F050FA6C
:103AC00000287FF47DAFABF1100BBBF1100F2799ED
:103AD000269A4B46E6DC45460C4698460132A94BF1
:103AE00026925C44072A279488E8080800F3958406
:103AF0009DF8777008F1080877B1269B01330134EF
:103B00000DF177010122072B2794269388E8060000
:103B100000F3D88308F10808109B6BB1269B013392
:103B200002341EA90222072B2794269388E8060058
:103B300000F3D38308F10808802D00F013830A9B5B
:103B40000E9A9F1A002F36DD102F269B8E4D27DDF3
:103B500042462146B0464FF0100B2E460C9C0B9D62
:103B600004E0103F102F02F1080215DD013310317F
:103B7000072B2791269382E84008F2DD25AA2946E3
:103B8000204604F0EDF900287FF41AAF103F102F03
:103B90002799269B4A46E9DC35460C464646904620
:103BA00001333C44072B2794269388E8A00000F3B8
:103BB0007E8308F10808079BDF0500F16782269BDA
:103BC0000E99C8F8006001330C44072B2794C8F8FD
:103BD0000410269300F34A8308F10808079B5B074B
:103BE0003AD50D9B089A9D1A002D35DD102D269B88
:103BF00020DD10260C9FDDF82CB004E0103D102DC8
:103C000008F1080816DD01335E4A26931034072BAD
:103C1000279488E84400F1DD25AA5946384604F087
:103C20009FF900287FF4CCAE103D102D279C269BD9
:103C3000C846E8DC0133534A26932C44072B2794CB
:103C400088E8240008DD25AA0B990C9804F088F96F
:103C500000287FF4B5AE279C099B0D9A08998A42EB
:103C6000ACBF9B185B180993002C40F00A8300231B
:103C70002693C846F9E511931BF0200340F0E2813A
:103C80001BF0100240F02C841BF0400300F028844D
:103C90000F9913460A4604320C880F920025B0E6AD
:103CA0000F9A1193166800248DF87740151D002E89
:103CB00000F0A5860A9A531C00F00786214630467C
:103CC00003F0B6FB002800F0DF86831B0E930A94F6
:103CD0000F95CDF81CB023EAE373089312949DF876
:103CE0007770B3E69AF8003001222B21EEE54BF015
:103CF000200B9AF80030E9E51193002A40F08D87F7
:103D0000224B18931BF0200F40F011810F9A1BF0EB
:103D1000100F134640F0DF831BF0400F00F0DB83F1
:103D2000043314880F9300251BF0010F00F00C8161
:103D300054EA050300F0088130239DF844208DF8F3
:103D400078308DF879204BF0020B022359E69AF86F
:103D5000003000297FF4BAAD01222021B6E54BF0F6
:103D6000010B9AF80030B1E50F9C23680D931846BB
:103D70000028234603F10403FFF60AAE0F939AF8D6
:103D80000030A3E58C9140009C9140007091400070
:103D90004BF0100B1BF0200F11933FF423AE0F9D3F
:103DA000073525F0070303F10802D3E900450F9218
:103DB000012326E69AF800302A2B0AF1010400F0CC
:103DC0001F87A3F130000928A24600F2AB8600232A
:103DD0001C461AF8013B04EB840400EB4404A3F1F5
:103DE00030000928F5D90A9472E54BF0800B9AF857
:103DF00000306BE54BF0400B9AF8003066E59AF81E
:103E000000306C2B03BF9AF801304BF0200B0AF105
:103E1000010A4BF0100B59E5002A40F009871BF00E
:103E2000200F40F0F7841BF0100F40F0AA841BF025
:103E3000400F00F0A6840F9A136804320F92BDF869
:103E400024201A8011E50F99B24B0C681893302288
:103E5000782304318DF8793011934BF0020B0F91D8
:103E600000258DF878200223CBE50F9911930A687D
:103E70008DF8A02000230A461F468DF877300432C3
:103E800001230893CDF81CB00A9712970F920E9356
:103E900028AEDFE51193002A40F0E2861BF0200FE8
:103EA0005DD11BF0100F40F006831BF0400F00F0B7
:103EB00002830F99B1F900400431E51722462B46E1
:103EC0000F91002A73F1000358DB0A999DF877706F
:103ED0004A1C4FF001037FF49BAD54EA050200F049
:103EE000DC81CDF81CB0012B00F07882022B40F071
:103EF000038218984E46230904F00F0143EA057324
:103F00002A091C461546435C06F8013D54EA0503A0
:103F1000F1D1A9EB06030E9390E51193002A40F02E
:103F20009B867D4B18931BF0200F3FF4EFAE0F9D47
:103F3000073525F0070303F108021BF0010F0F926C
:103F4000D3E900457FF4F4AE02235AE51193002A29
:103F500040F07E864BF0100B1BF0200FA1D00F9D80
:103F6000073525F00705D5E90023002A05F10801EA
:103F70001D4673F100030F911446A6DA2D27644203
:103F800065EB45058DF8777001233DE51193002A17
:103F900040F05A860F9D073525F0070303F108020C
:103FA0000F921A6814925B681593159B149D23F069
:103FB0000044284621464FF0FF32584B04F06CFE77
:103FC000002840F04883284621464FF0FF32534BEB
:103FD00004F044FE002840F03E8314A80FC804F00B
:103FE00033FE002840F02F859DF877704C4E4D4BE6
:103FF0002BF08000079011980322002108920A916B
:104000004728D8BF1E460E9212911FE54BF0080BB1
:104010009AF800305AE4A3F1300000231C461AF845
:10402000013B04EB840400EB4404A3F130000928B5
:10403000F5D90D944CE44BF0100B11931BF02003B9
:104040003FF41EAE0F9D073525F0070303F108026C
:10405000D3E900450F920023D3E41193002A40F0E6
:10406000E085119A002A3FF4A4AC002301211F46E9
:1040700008918DF8A020CDF81CB08DF877300A9308
:1040800012930E9128AEE5E4279C35E5119B652B34
:1040900040F3A68014A80FC804F0CCFD002800F05F
:1040A0004F81269B204AC8F80020013301340122A9
:1040B000072B27942693C8F8042000F36A8308F19D
:1040C00008081F9B139A279C934203DB079BDD077D
:1040D0007FF584AD269B19991A9AC8F80020013300
:1040E0000C44072BC8F804102794269300F39E83F2
:1040F00008F10808139B5E1E002E7FF76FAD102E8F
:10410000269B0A4D40F3F58122461027DDF830B09A
:104110000B9C13E0709140005C914000FFFFEF7F2B
:10412000509140004C914000EC9040009C91400028
:1041300008F10808103E102E40F3DA8101331032E6
:10414000072B2792269388E8A000F1DD25AA2146B7
:10415000584603F005FF00287FF432AC279A269BCF
:10416000C846E7E70D9B089A9F1A002F7FF7E7AC38
:10417000102F269BB64D27DD42462146B0464FF014
:10418000100B2E460C9C0B9D04E0103F102F02F1EB
:10419000080215DD01331031072B2791269382E8A1
:1041A0004008F2DD25AA2946204603F0D9FE002862
:1041B0007FF406AC103F102F2799269B4A46E9DC76
:1041C00035460C464646904601333C44072B27941F
:1041D000269388E8A00000F3328208F10808AEE4D4
:1041E000139B269F012B40F3FE81013701340123ED
:1041F000072F27942697C8F80060C8F8043000F30A
:10420000038208F10808199A1A9BC8F80030013790
:104210001444072F27942697C8F8042000F300823F
:1042200008F1080814A80FC804F004FD139B002827
:1042300040F00181013B013701361C44072F2697CE
:104240002794C8F80060C8F8043000F3288108F10A
:1042500008081B9AC8F804200137144421AB072F23
:1042600027942697C8F800307FF7B6AC25AA0B999B
:104270000C9803F075FE00287FF4A2AB279CC8467B
:10428000ACE425AA0B990C9803F06AFE00283FF4D1
:10429000EEACFFF795BBDDF81CB0012B00F03581CB
:1042A000022B25D1CDF81CB00024002521E625AA3B
:1042B0000B990C9803F054FE00287FF481AB279CE7
:1042C000C84678E425AA0B990C9803F049FE00280B
:1042D0007FF476AB279CC8461EE425AA0B990C9860
:1042E00003F03EFE00287FF46BAB279CC84623E416
:1042F000CDF81CB000240025494600E03146E20814
:1043000042EA4572E80804F00703054614463033D4
:1043100054EA050201F8013C01F1FF36EED1079A9B
:10432000D2077FF5F6AD302B3FF4F3AD02393023E1
:1043300006F8013CA9EB01030E930E46FFF77EBB86
:104340001F99002940F32F82129B139A9342A8BF12
:104350001346002B1F460DDD269BC8F80060013375
:104360003C44072B2794C8F80470269300F320835D
:1043700008F10808129B002FA8BFDB1B002B1F466B
:1043800040F3D780102F269B314D40F3EE814246FB
:104390002146B0464FF0100B2E460C9C0B9D04E0BE
:1043A0000832103F102F40F3DC8101331031072B0E
:1043B0002791269382E84008F2DD25AA2946204667
:1043C00003F0CEFD00287FF4FBAA2799269B4A46DE
:1043D000E7E70A9B0E934E46FFF730BB002D08BF60
:1043E0000A2CC0F090804E46204629460A2200231F
:1043F00004F090FC303206F8012D204629460023B7
:104400000A2204F087FC04460D4654EA0503EBD16A
:10441000A9EB06030E93FFF711BB25AA0B990C9885
:1044200003F09EFD00287FF4CBAA9DF87770279CAF
:10443000C846FFF761BB5E1E002E7FF70AAF102E45
:10444000034D23DD22464FF0100B0C9C07E000BF0C
:104450009C914000103E102E08F1080815DD013730
:104460001032072F2792269788E82008F2DD25AA28
:104470000B99204603F074FD00287FF4A1AA103E9A
:10448000102E279A269FC846E9DC1446013734448B
:10449000072F2794269788E860007FF7D8AE25AAD3
:1044A0000B990C9803F05CFD00287FF489AA279CE7
:1044B000269FC846CDE60F9A146813460433E517C5
:1044C0000F9322462B46FCE404321C680F92012312
:1044D0000025FFF796BA1C6804330F93002523E4E8
:1044E0000F990A4604320C680F920025FFF789BA2B
:1044F000144601333444072B2794269388E8600040
:104500007FF76AABB2E6DDF81CB0CDF81CB042AE66
:104510003034012306F8414D0E93FFF78FBA25AAD8
:104520000B990C9803F01CFD00287FF449AA279CE6
:10453000C8461F9A139B9A4244DB079BD90741D474
:10454000139B12989A1A1D1A9542A8BF1546002D62
:104550000EDD2699C8F80450013106442C44072981
:10456000C8F800602794269100F33B8208F1080800
:10457000002DACBF561B1646002E7FF72FAB102E1A
:10458000269BB04DB5DD22461027DDF830B00B9CE0
:1045900004E008F10808103E102EA9DD01331032A6
:1045A000072B2792269388E8A000F2DD25AA214652
:1045B000584603F0D5FC00287FF402AA279A269BD0
:1045C000C846E8E7269B19981A99C8F800100133E5
:1045D0000444072B2794C8F80400269300F3F581C0
:1045E00008F10808ACE7079BDA073FF5FEAD013795
:1045F00001340123072F27942697C8F80060C8F8D4
:1046000004307FF724AE4AE725AA0B990C9803F0F3
:10461000A7FC00287FF4D4A9279C269FC846F2E572
:1046200025AA0B990C9803F09BFC00287FF4C8A9DD
:10463000279C269FC846F5E54E46FFF7FFB925AAF9
:104640000B990C9803F08CFC00287FF4B9A9279CE7
:10465000C846FFF774BA149C22462046159C234690
:10466000214604F019FB002840F086820A9B0133A2
:10467000119B23F020030E9300F0E281472B00F002
:104680001E814BF480730793159B1F1E149B089388
:10469000BBBF3B4603F1004700232D231093119B22
:1046A000662B00F0BB81462B00F0DF800E9B089A42
:1046B000452B0CBF0A9B0A9D23A820A908BF5D1C9F
:1046C000049003911FA802213B460290019500919E
:1046D0000C9801F049FA119B672B064640F0E081E7
:1046E0001BF0010F00F046827419169A0898179B68
:1046F000394604F09FFA002840F06581239BA342CD
:1047000006D230215A1C23921970239B9C42F9D85F
:104710009B1B13930E9B472B00F0E980119B652B8D
:1047200040F3CD81119B662B1F9B129300F09E815D
:10473000139B129A1946914200F38A811BF0010FD4
:1047400040F0138222EAE273089367230E921193DA
:10475000109B002B40F0C4800A939DF87770FFF700
:1047600075B935460C464646904601333C44072B06
:104770002794269388E8A0003FF7D1AE08F10808F7
:10478000D7E60F9A136804320F92099A1A60FFF75E
:104790006CB825AA0B990C9803F0E2FB00287FF473
:1047A0000FA9C8468DE4269B274AC8F8002001338C
:1047B00001340122072B27942693C8F8042072DCC9
:1047C00008F1080829B9139B1BB9079BD8077FF587
:1047D00005AA269B19981A9AC8F8002001330246A8
:1047E0002244072B2792C8F80400269300F38D81FA
:1047F00008F108080029C0F265811399C8F8006023
:1048000001338C18072B27942693C8F804107FF7E0
:10481000E3A92BE50F9A09991368CD1708460432CE
:1048200029460F92C3E90001FFF71FB825AA0B998B
:104830000C9803F095FB00287FF4C2A8279CC8467B
:1048400058E400BF9C914000EC90400040210C983F
:10485000FEF780FA0B9A10601061002800F0EC81DE
:104860000B9A40235361FEF7F0BF23A820A90A9CAE
:10487000049003911FA803210290089A01943B46DB
:1048800000910C9801F070F925460646119B462BC5
:1048900006EB05047FF429AF3378302B00F07281EA
:1048A0001F9D2C4421E725AA0B990C9803F058FB77
:1048B00000287FF485A81F99279CC84682E70A9B99
:1048C000002B08BF01230A93DBE630460A94FEF76B
:1048D00037FF0F950E90CDF81CB00346FFF7FBB9DC
:1048E0002D2700238DF877700A93FFF7B0B81F9B30
:1048F00012931A46033304DB0A9B19469142BFF612
:1049000017AF119B023B11939DF844308DF8843012
:10491000129B013B002B1F93BDBF129BC3F10103F0
:104920002D222B22092B8DF8852040F316810DF1C5
:1049300093042046AD4D00E0104685FB0312D917C5
:10494000C1EBA20101EB8102A3EB42023032092943
:1049500000F8012C0B4600F1FF32EDDC3033023859
:10496000D9B2844202F8011C40F25F810DF1860049
:10497000134601E013F8011B00F8011BA342F9D113
:1049800001339B1A0DF18602134421AA9B1A139A34
:104990001B93012A13440E9340F313810E9B199A23
:1049A00013440E9323EAE373089300231293CFE694
:1049B00025AA0B990C9803F0D3FA00287FF400A8DD
:1049C000279CC846D6E42346A2E625AA0B990C9854
:1049D00003F0C6FA00287EF4F3AF1F9A279CC8465E
:1049E000AEE525AA0B990C9803F0BAFA00287EF4DC
:1049F000E7AF1F9A139B279C9A1AC846B8E50A9BF3
:104A00001296062B28BF06230A96374608930F9561
:104A1000CDF81CB00E93764EFFF718B823A820A946
:104A20000A9D049003911FA803210290089A019502
:104A30003B4600910C9801F097F8064644192BE785
:104A400006230A931DE62D278DF87770FFF7CEBA5F
:104A5000199A139B1344129A0E93002A40F3AA80CA
:104A600023EAE37308936723119371E6002B40F365
:104A7000B2800A9A002A40F093801BF0010F40F0A8
:104A80008F8008930E9363E60A9B08930E930A9017
:104A90000F95CDF81CB012909DF87770FEF7D6BF39
:104AA000119B472B7FF420AE1BF0010F7FF4EEAE7D
:104AB000239B9B1B13930E9B472B3FF418AF1F9B0D
:104AC000129321E74F4210314A4D2FDA1024DDF8BE
:104AD00030B004E008F10808103F102F26DD013344
:104AE0001032072B27922693C8F80050C8F80440CC
:104AF000F0DD25AA0B99584603F032FA00287EF41F
:104B00005FAF279A269BC846E6E725AA0B990C9823
:104B100003F026FA00287EF453AF1F99279A269BAC
:104B2000C84667E600200A90FEF7D2BE01333A4439
:104B3000072B88E8A0002792269308F108087FF742
:104B40005CAE25AA0B990C9803F00AFA00287EF4B3
:104B500037AF279A269BC8464FE6303330228DF870
:104B600087308DF8862022AB0FE7129B199A1344E9
:104B70000E9375E7239BCBE51F4E204B9DF8777076
:104B8000FFF736BA169A0898179B394604F052F880
:104B900000287FF485AEC5F101051F952C44A4E5DE
:104BA000129B199A13440A9A1A4422EAE2730E924B
:104BB0000893CDE5129B0E9AC3F101031A441346E4
:104BC000D6E71BF0010312937FF4E8AE0E9B23EAB5
:104BD000E3730893BCE50A9B13B91BF0010F02D0E5
:104BE000199B0133DFE701234BE700BF6766666669
:104BF000849140009C9140005891400054914000A5
:104C00000F9D9AF80130286840EAE0700A90284623
:104C10000430A2460F90FEF759BE8DF87710FFF7CB
:104C20006FB88DF87710FFF71CBA0DF18603ACE66C
:104C30008DF87710FFF7F3B80C9A0C2313604FF040
:104C4000FF330993FEF7C5BE8DF87710FFF7A2B9C1
:104C50008DF87710FFF77EB98DF87710FFF761B9FF
:104C60008DF87710FFF71AB92DE9F84F4B6E9C04B9
:104C700093462FD59368126853B30E46074602F148
:104C8000080919E920045FEA9A0817D0043D0024B6
:104C900001E0A04510D0324655F8041F384602F016
:104CA00035F8431C04F10104F3D10023CBF808309C
:104CB000CBF80430BDE8F88FDBF808302AF0030A9F
:104CC000A3EB0A03CBF8083009F10809002BD8D16F
:104CD0000020EAE702F062F90023CBF80830CBF8B5
:104CE0000430BDE8F88F00BF2DE9F04FADB01D4690
:104CF000019191460893069018B1836B002B00F048
:104D0000E080019CB4F90C0081B28B0407D4636E7F
:104D100040F4005123F40053A181636689B20F0768
:104D200040F1B180019B1B69002B00F0AC8001F0C9
:104D30001A010A2900F0B58000230DF1700B0B93C6
:104D4000119310930493CDF83CB0DA4699F80030F3
:104D50004C46FBB1252B02D11CE0252B03D014F8C7
:104D6000013F002BF9D1A4EB09059DB1109B119ACD
:104D7000CAF8009001332A44072BCAF80450119254
:104D800010937ADD002A40F08F84049B10922B440C
:104D9000DA4604932378002B00F0B18300204FF013
:104DA00000038DF8373004F10109627805460646A4
:104DB00003464FF0FF3409F10109A2F120015829FF
:104DC00000F20E83DFE811F037020C030C03EB0254
:104DD0000C030C030C030C030C030C039E02F002E7
:104DE0000C03820077020C03CF01D401D401D4015B
:104DF000D401D401D401D401D401D4010C030C0397
:104E00000C030C030C030C030C030C030C030C032A
:104E10003F020C030C030C030C030C030C030C03E8
:104E20000C030C030C0346020C030C030C030C03D1
:104E30000C034A020C030C0352020C030C030C0378
:104E40000C030C030C030C030C030C030C03E20116
:104E5000F6010C030C030C030703F6010C030C030F
:104E600091020C03F5028700B102C3020C03C802D1
:104E70000C03BD010C030C03AA020AF1080A049BEF
:104E80002B44049386E7019C0698214600F062FDBE
:104E9000002840F04083A18901F01A010A297FF41B
:104EA0004BAF0199B1F90E30002BFFF645AF2B4601
:104EB0004A46069800F018FD049004982DB0BDE80D
:104EC000F08F01F0AFFE1CE77642089243F0040336
:104ED00099F800206FE7079613F0200240F05A84FB
:104EE00013F0100140F0F18313F0400200F0ED8365
:104EF00008980A46014604310688089100274FF0B9
:104F000000018DF837100025611C00F0758123F039
:104F10008001039156EA070140F07381002C40F0B4
:104F20005683002A40F0B28313F00103059300F08A
:104F300047840DF1B008302308F8413D059BA3429A
:104F4000B8BF234602930DB101330293039B13F0C4
:104F50000203099302D0029B02330293039B13F0D6
:104F600084030A9340F06382079B029A9D1A002DE6
:104F700040F35D82102D40F37784109B119AB94E57
:104F8000D6461027A2461946069C07E001F1020CFE
:104F90000EF1080E0146103D102D11DD481C103297
:104FA000072811928EE8C0001090EFDD002A40F033
:104FB0003182103D102D11464FF0010CDE46EDDC24
:104FC00054466146F2462A4407291192CAF8006005
:104FD000CAF80450109100F3E6829DF837500AF1A8
:104FE000080A481C002D40F02A82099B002B00F083
:104FF000448202320EA902230728119210908AE8F7
:105000000A0040F33682002A40F08B830A9B802BF3
:105010004FF001001146DA4640F03382079B029DB3
:105020005E1B002E40F32D82102E8F4D40F32F84F7
:10503000D4461027A246069C07E001F1020E0CF1AF
:10504000080C0146103E102E11DD481C10320728B6
:1050500011928CE8A0001090EFDD002A40F09682BB
:10506000103E102E4FF0010E1146DC46EDDC54468A
:10507000E2463244BEF1070F11928AE86000CDF893
:1050800040E000F35B83059BE41A002C0AF1080A58
:105090000EF10100714600F3F9810599CAF800800C
:1050A0000A4407281192CAF80410109040F3558260
:1050B000002A40F0EE82039B1092580738D5079BD8
:1050C00002995C1A002C40F3BA82DA46102C40F3A5
:1050D000DA831099634E069FDDF80480102506E000
:1050E000881C0AF1080A1946103C102C13DD4B1CD1
:1050F0001032072B1192CAF80060CAF804501093BE
:10510000EEDD002A40F00B82103C102C4FF0010025
:105110001146DA46EBDC224407281192CAF80060F7
:10512000CAF80440109040F32382002A40F06783BD
:10513000049B079A02998A42ACBF9B185B180493A0
:105140001FE207969E0600F119830899DD060A46BC
:1051500000F1B582580640F1B2820E880431002772
:1051600001220891CBE643F0800399F8002022E663
:10517000A2F13001002619F8012B06EB860601EB9F
:105180004606A2F130010929F5D916E608990796D5
:105190000A688DF848204FF000000A468DF8370065
:1051A000043201200290089205900DF14808039303
:1051B0000024CBE60796002840F082839E0600F18B
:1051C000D182DD0600F18D82580640F18A82089D69
:1051D000B5F900602A46F71704323046394608927E
:1051E000002871F10002C0F2EE82611C9DF8375078
:1051F0004FF001027FF48BAE56EA070100F0E88120
:105200000393012A00F02582022A40F0F5810B98D1
:10521000D846330906F00F0143EA07733A091E46E0
:105220001746435C08F8013D56EA0703F1D1ABEBA2
:105230000803059382E699F80020002D7FF4BBADAA
:1052400001202025B7E50796002840F0368343F07B
:105250001003B3E7079643F010033DE6079643F0CB
:1052600010036FE7AC914000BC9140000796002806
:1052700040F02C83B0490B919F0600F1978208986B
:10528000DE06014600F128825D0640F125820431E8
:10529000068808910027D80740F1D98156EA07010E
:1052A00000F0D58130218DF8392043F002038DF8CC
:1052B0003810022223E699F800202A2A09F1010772
:1052C00000F0F082A2F130010929B9464FF0000444
:1052D0003FF673AD19F8012B04EB840401EB440491
:1052E000A2F130010929F5D967E599F800206C2A67
:1052F00003BF99F8012043F0200309F1010943F0AD
:10530000100358E508990E680A46002E02F10402BF
:10531000FFF6DAAD089299F800204CE507960028D0
:1053200040F0DA8285490B91A6E70898834A0796F0
:105330000B9206687822302104308DF8392043F032
:105340000203089000278DF838100222D7E543F0B9
:10535000200399F800202EE508990796D1F80080DF
:105360004FF000028DF837200E1DB8F1000F00F04D
:105370008182671C00F06082224600214046029331
:1053800002F056F8029B002800F08482A0EB08028D
:105390000592089603939DF837500024CEE543F01C
:1053A000010399F8002006E599F8002001202B253B
:1053B00001E5002840F08782990600F13182DA0683
:1053C00021D45B061FD5089A136804320892BDF8F1
:1053D00010201A80BAE443F0400399F80020EAE470
:1053E0000796002840F07582002A00F0888001218D
:1053F0008DF848204FF0000202918DF8372005917A
:105400000DF14808D3E6089A136804320892049A0A
:105410001A609BE40FAA01992046FFF725FC00289B
:1054200074D11099119A01F1010CDE46B3E510997F
:10543000119A481C9DF83750002D3FF4D6AD01322B
:105440000DF137050121072811921090CAF800507C
:10545000CAF8041040F3B680002A40F05581099B39
:10546000002B3FF4D3AD0EAB022208461C931D92D5
:10547000DA4601460AF1080A01300A9B802B3FF404
:10548000CDAD059BE41A002C7FF707AE102C2C4DF8
:105490001DDDD6461026069FDDF804A006E0881C18
:1054A0000EF1080E1946103C102C0FDD4B1C10326B
:1054B000072B11928EE860001093F0DDA2B9103C2A
:1054C000102C4FF001001146DE46EFDCF24622447C
:1054D00007281192CAF80050CAF80440109031DC35
:1054E0000AF1080A0130D8E50FAA51463846FFF7FD
:1054F000BBFB58B91099119A481CDE46D3E7119BA3
:1055000023B1069801990FAAFFF7AEFB019B9B8977
:105510005B067FF5D2AC4FF0FF330493CDE40FAAC6
:1055200041463846FFF7A0FB0028EFD11099119AA9
:10553000481CDA46D8E500BF5C91400070914000FD
:10554000BC914000002A40F00081059A1D92012381
:105550001192CDF870801093DA460AF1080A039B85
:10556000590705D5079B02995C1A002C3FF7AEAD91
:10557000049B079902988142ACBF5B181B180493E7
:105580007ABB00231093DA46FFF7E0BB0FAA01991C
:105590002046FFF769FB0028B8D11099119A01F154
:1055A000010EDC464EE5002A40F01C819DF83710C4
:1055B000002900F0118101220DF1370110461D92E2
:1055C0001C91DA4601460AF1080A01300DE5039BF9
:1055D000012A00F09080022A0BD1039300260027B5
:1055E00015E60FAA01990698FFF73EFB0028C8D0E0
:1055F0008CE7039300260027594600E04146F20855
:1056000042EA4772F80806F00703074616463033A9
:1056100056EA070201F8013C01F1FF38EED1039A86
:10562000D6077FF504AE302B3FF401AE02393023AC
:1056300008F8013CABEB0103059388467EE4049B2C
:10564000079A8A42ACBF9B185B18049399E7022221
:1056500055E4002F08BF0A2E4CD3D84630463946B1
:105660000A22002303F056FB303208F8012D3046A1
:10567000394600230A2203F04DFB06460F4656EA40
:105680000703EBD1ABEB0803059357E40594D84629
:1056900054E40FAA01990698FFF7E6FA00287FF470
:1056A00035AF119ADA465AE70FAA01990698FFF723
:1056B000DBFA00287FF42AAFDA46FFF7E0BB0431BB
:1056C000166808910122002719E408980146043160
:1056D00006680891002712E40E680431089100273B
:1056E000D9E508990E680A46F71704320892304641
:1056F000394675E5039B03930DF1B008303601235D
:1057000008F8416D059319E40FAA01990698FFF76F
:10571000ABFA00287FF4FAAE1099119A481CDA46C9
:1057200063E40FAA01990698FFF79EFA00287FF418
:10573000EDAE1099119A481CDA469EE6002A40F018
:10574000868001201146DA469BE60FAA0199069849
:10575000FFF78AFA00287FF4D9AE1098119A013029
:10576000DA469AE4089E073626F00706D6E90001D5
:1057700006F10802089206460F4631E5089E0736F4
:1057800026F0070202F10801D2E900670891012220
:10579000FFF7B5BB089E073626F0070202F10801A5
:1057A000D2E9006708910022FFF7A9BB089E0736DF
:1057B00026F0070101F108000890D1E900676AE5C9
:1057C000D846FFF7BBBB2D25764267EB47078DF820
:1057D00037500122FFF798BB099BD3B9114601202E
:1057E000DA464EE60FAA01990698FFF73DFA00281F
:1057F0007FF48CAE1099119A481CDA461AE60FAA6B
:1058000001990698FFF730FA00287FF47FAE119ACD
:10581000AEE60EAB02221C931D920120DA4628E66A
:10582000089A04991368CD1708460432294608924D
:10583000C3E90001FFF78ABA404608960393FDF7D3
:105840007FFF002405909DF83750FFF777BB0FAA24
:1058500001990698FFF708FA00287FF457AE1099CF
:10586000119A481CDA460CE61099119A1C4E013127
:10587000FFF7A9BB062C28BF0624059408960294BE
:10588000DFF8608093E41098154E013043E48646BB
:10589000FFF7EFBB05949DF8375008960393044635
:1058A000FFF74CBB089999F801200C68043144EAD1
:1058B000E474B9460891FFF77EBA8DF83750C6E414
:1058C0008DF837507AE48DF8375075E58DF83750FC
:1058D000D0E48DF8375087E58DF8375022E500BFCA
:1058E000AC91400084914000F0B50C46ADF26C4D97
:1058F0008989666EE589199621F00201666AADF81C
:105900000E500025E769ADF80C10099606951AAE01
:105910004FF48065694600960496029505950797B1
:105920000646FFF7E1F9051E07DB3046694601F040
:10593000E5F8002818BF4FF0FF35BDF80C305B06C6
:1059400003D5A38943F04003A38128460DF26C4D93
:10595000F0BD00BF38B5304B1B6805460C4613B18F
:105960009A6B002A38D0B4F90C2093B218070CD5E2
:105970002069A8B113F001021ED0636900225B42C6
:10598000A361A260F0B1002038BDD9063CD558070C
:1059900026D4206942F00803A3819BB20028E9D1F4
:1059A00003F42072B2F5007FE4D02846214601F0CE
:1059B000E1FCA3892069DDE7990758BF6269A2600D
:1059C0000028E0D1B4F90C301A06DDD543F04003CD
:1059D000A3814FF0FF3038BD184601F023F9C2E72C
:1059E000216B51B104F14003994204D0284601F0E3
:1059F000EFF9B4F90C2000232363002320696360CE
:105A000022F024022060C5E742F0400209232B6007
:105A10004FF0FF30A28138BD0C004020024B13B183
:105A2000024800F005B8704700000000396C4000E3
:105A3000002301461A46184602F0B6BB02690B69FC
:105A4000934200F38D802DE9F04F03F1FF3801F10F
:105A5000140700F1140B57F828205BF828304FEAA0
:105A6000880483B00132B3FBF2F90BEB040300941A
:105A700007EB040A0193B9F1000F39D000252E4637
:105A8000BC46DE465CF8044BDEF80030A2B209FBEF
:105A90000255220C2C0C09FB0242ADB2751B96B2CA
:105AA000C6EB134615FA83F306EB23469BB243EA93
:105AB0000643E2454FEA12454EF8043B4FEA2646BC
:105AC000E0D2009B5BF8033093B9019C231F9B45F8
:105AD0000CD254F8043C4BB9A4F1080302E01A6854
